:03000000020026D5
:0C002600787FE4F6D8FD75813502006D8E
:1002BF00012300022500000128000124000127006E
:03002300020124B3
:07012400C0E0C0D075D00857
:10012B00309843C298AF99C3E526940AE52594000D
:10013B004009752800752500752600BF3B037528FF
:10014B0001E528600E0526E5267002052514242CF2
:10015B00F8A60FBF0D10E528600C7524017528005B
:0E016B00752500752600309905C29975230090
:05017900D0D0D0E032FF
:0A032D00E52370FC7523018F99226F
:10029A008B298A2A892BAB29AA2AA92B1200B26098
:1002AA0013052BE52B7002052A14F91200B2FF126E
:0502BA00032D80E2228B
:0A0245008B168A1789188C198D1A80
:10024F00E4FDFCC3ED951AEC95195018AB16AA17DF
:10025F00A9188D828C831200CBFF12032D0DBD00C8
:04026F00010C80DF1F
:010273002268
:10021100E4F510F511E524602A782CE6B43C1208C7
:10022100E6FFB4AD057527018007EFB4DD0375C79F
:10023100607E007F0A7D007B007A00792C1200F835
:03024100E4F524BD
:010244002297
:1002DE00D3EF9400EE940040147DD07C07ED1D709A
:0D02EE00011CED4C70F7EF1F70E61E80E361
:0102FB0022E0
:1002FC00D3EF9400EE940040147D037C00ED1D7050
:0D030C00011CED4C70F7EF1F70E61E80E342
:0103190022C1
:10000E0075985075D78F75D6FD438E14438E01D2D9
:04001E00ACD2AF228F
:1002740075103C7511A08F128D13E51125122513ED
:10028400F51475150D7B007A0079107D067C00123B
:050294000245E4F5271E
:010299002242
:0E02CF00021E000002200000011D000122009E
:10017E00D292D293E4F591F59212000375C1064323
:10018E00C120E5226006E4F52243C110E51D602C76
:10019E0020920B120337209208751B018003E4F5A1
:1001AE001B20930B120337209308751C018003E468
:1001BE00F51CAD1CAF1B120274E4F51D120211806A
:0101CE00C16F
:0600030012031A02000EB8
:10031A00438E805389F0758A40758CA2C28DD2A90A
:03032A00D28C2250
:03000B000201CF20
:1001CF00C0E0C0D075D008051FE51FAE1E70020538
:1001DF001E14FFBE0B0CBFB809751D01751E0075EF
:1001EF001F000521E521AE207002052014FFBE037C
:1001FF000CBFE809752000752100752201D0D0D001
:02020F00E032DB
:080337007F757EB8DEFEDFFCDD
:01033F00229B
:1000320002017EE493A3F8E493A34003F68001F265
:1000420008DFF48029E493A3F85407240CC8C333CF
:10005200C4540F4420C8834004F456800146F6DF9E
:10006200E4800B01020408102040809002BFE47E6D
:10007200019360BCA3FF543F30E509541FFEE49393
:10008200A360010ECF54C025E060A840B8E493A35A
:10009200FAE493A3F8E493A3C8C582C8CAC583CA85
:1000A200F0A3C8C582C8CAC583CADFE9DEE780BE3D
:0102DD000020
:1000B200BB010689828A83E0225002E722BBFE024C
:0900C200E32289828A83E493227F
:1000CB00BB010CE58229F582E5833AF583E02250EA
:1000DB0006E92582F8E622BBFE06E92582F8E22234
:0D00EB00E58229F582E5833AF583E493224E
:1000F800EF4E6012EF60010EEDBB010B89828A831F
:10010800F0A3DFFCDEFA2289F05007F709DFFCA92B
:0C011800F022BBFEFCF309DFFCA9F02282
:00000001FF
